:10000000E6C2000001C30000FFC20000FDC2000004
:10001000FBC20000F9C20000F7C20000F5C20000F8
:10002000F3C20000F1C200000C94E2310C94CA3219
:100030000C949731E9C20000E7C20000E5C200005D
:10004000E3C20000E1C20000DFC20000DDC2000028
:10005000DBC200000C94BE31D7C20000D5C2000044
:10006000D3C20000D1C20000CFC20000CDC2000048
:10007000CBC20000C9C20000C7C20000C5C2000058
:10008000C3C20000C1C20000BFC20000BDC2000068
:10009000BBC20000B9C20000B7C20000B5C2000078
:1000A000B3C20000B1C20000AFC200000660FF0989
:1000B00061A1010962150026FF00952075088102E3
:1000C0000963150026FF00952075089102C00501FF
:1000D0000906A101050719E029E715002501950882
:1000E000750181029501750881010507190029FF35
:1000F000150026FF009506750881000508190129DD
:10010000051500250195057501910295017503916D
:1001100001C009024200020100A0FA090400000126
:10012000030101000921110100012244000705819A
:100130000308000109040100020300000009211165
:1001400001000122220007058203200001070503A8
:1001500003200001120100020000000853430100C7
:100160000100010203011C037600690061006C00BC
:100170003A0066003600340063003200620033004B
:10018000630000001A0363006F0072006E006500D8
:100190005F00730069006E0067006C00650000007E
:1001A0000E0363007500730074006F006D000000A3
:1001B000040309040000000000000000000000002B
:1001C000000000000000000000000000000000002F
:1001D00000000000000000007E0F00D4FFFFFFC7FA
:1001E0000000007800000000000000002A2B28001A
:1001F00000000000000000000000000000000029D6
:10020000000000002C1E3420212224342627252E15
:10021000362D3738271E1F2021222324252633334D
:10022000362E37381F0405060708090A0B0C0D0E79
:100230000F101112131415161718191A1B1C1D2F45
:100240003130232D350405060708090A0B0C0D0E65
:100250000F101112131415161718191A1B1C1D2F25
:100260003130354C290014001A0008001500170021
:1002700000001C0018000C00120013002F002B00BF
:1002800004001600070009000A0000000B000D0022
:100290000E000F0033003400E1001D001B000600BB
:1002A000190005000000110010003600370038006A
:1002B0002A000000E00021522C00510052000000F2
:1002C00050004F0028002252E200000001002D00E3
:1002D0002E002F00300031000000330034003500C4
:1002E0003600380030002A01010001000100010041
:1002F00001000000010001000100010001000100F7
:1003000001000100010001000100010000000100E6
:10031000010036023702010001000000E000010088
:100320002C0051005200000050004F00E30001007B
:10033000E2000000010001000100010001000100D5
:1003400000000100010001000100010001003A006D
:100350000100010001000100010000000100010096
:100360000100010001000100010001000100010085
:100370000100010000000100010001000100010076
:1003800001000000010001000100AC00AB00000012
:10039000A900AA0001000100010000000100010005
:1003A000E10424119D11000002000200DD0424116B
:1003B0009D11000003000100E20424119D110000C2
:1003C00004000200C70424119D1116070500010056
:1003D000E30424119D11000006000200C904241149
:1003E0009D11000007000200DF0424119D11000090
:1003F00012000200E50424119D1100001300020008
:10040000E70424119D11000014000100E9042411E7
:100410009D1100001500000000001F076E0C000079
:1004200016000100E4043B11B311000017000101A4
:10043000E4043B11B311000018000102E4043B1175
:10044000B311000019000200EB0424119D110000FB
:100450001A000103E4043B11B31100001B00020069
:10046000ED0424119D110000FD377A585A00000454
:10047000E6D6B4460200210116000000742FE5A361
:10048000E001D500D45D003D8889C65436C3174FBE
:10049000E4DCCAC67FE499451F185965E9181E3D7A
:1004A000A676564981BCEAA9B1029ACA8C674BF775
:1004B000BCFF3F77713A7A9C4CD78B5ACD950BBCD9
:1004C000FC3C8B30885D383FBF35721AD19FE80005
:1004D0006D6523513A75F3BAD145EF3387EC752436
:1004E000F39BD370613D6EAE0158F2019D7A03100B
:1004F000CABFE04B94FCEC02E75871C9C9C1CA43BA
:10050000655AF1B20AFFC75092CB099107BA1FC1D1
:10051000731DFFA9D064AAAF9A71F3F8C6D00DBCC1
:10052000B0365F56E83F15325DAAF85978EA4606BC
:1005300039B67222AF56C1E18D51607C80F7ADCEE5
:10054000F446B293FFD93F4178B4E6EBF870D97F17
:1005500018C7326A33652435AE3BF800A2B8577C21
:10056000D29509E60001F001D603000068BCDEEA7E
:10057000B1C467FB020000000004595A4C4C4C4CBB
:100580004C4C005252525252524C4C4C4C4C4C001F
:100590005252525252524C4C4C4C4C4C00525252B1
:1005A000525252004C4C4C4C4C005252525252003F
:1005B000504F52514A4D4B4E2A4C2F300D0E0B0FBF
:1005C0001A0508050905071811130408120C11244F
:1005D0001FBECFEFDAE0DEBFCDBF11E0A0E0B1E09B
:1005E000EAE3F8E602C005900D92A033B107D9F70F
:1005F00024E0A0E3B1E001C01D92A43FB207E1F7FF
:100600000E94A12A0C94E733FBCC9C0191509F31AE
:10061000B0F4832F817034FF0AC08295807F31FD52
:10062000806232FD806433FF0BC08068089531FD25
:10063000826032FD846033FF03C08860089580E0EB
:100640000895CF93DF93EB01E0DFFE010995DF9181
:10065000CF9108950C9413330895982F92959F701D
:1006600061F420E0982F892F8695869511F02E5FF2
:10067000982F892F8695820F089524E0F4CF282F94
:1006800092959F70963099F060F4925F9F709230CF
:1006900030F4203FB1F038F481E0283E38F080E0BB
:1006A00008959A5FF3CF81E0243FC9F7089591E060
:1006B000813F09F090E081E0283E08F080E0892B3E
:1006C000089581E008958093C50408958093C60439
:1006D000089521E001C0220F8A95EAF78091C604AF
:1006E000822BF4CF21E001C0220F8A95EAF7822FF6
:1006F00080959091C6048923E9CF292F943090F5F5
:100700008D3080F590E03DE0239F800D911D1124F8
:1007100051E081FD54E080FD550F82FD529523E0AC
:10072000969587952A95E1F7FC01EE0FFF1FE80FDC
:10073000F91FEE59FD4F20E030E070E04191DF01FC
:10074000CB01022E02C0969587950A94E2F7869512
:10075000880B8427852384278E932F5F3F4F233078
:10076000310561F70895292F943070F58D3060F5CB
:1007700090E03DE0239F800D911D1124682F67704C
:1007800023E0969587952A95E1F7FC01EE0FFF1F70
:10079000E80FF91FEE59FD4F40E050E080E0219155
:1007A00030E0062E02C0369527950A94E2F72170B4
:1007B000042E01C0220F0A94EAF7822B4F5F5F4F8D
:1007C0004330510561F7089580E008959091C60483
:1007D00021E030E0F90101C0EE0F8A95EAF7D90176
:1007E00001C0AA0F6A95EAF7EA2B01C0220F4A95C9
:1007F000EAF7892F8E23E81303C0892F822B66CF57
:100800002095822F8923FBCFE0918502909184026D
:10081000E91302C080E008959F0159E0E59FF001CF
:100820001124E65EFD4F5181561306C050815813C6
:1008300003C05581541305C02F5F3F4FF901E77086
:10084000E7CF81E008958091190290E020E0022E28
:10085000001C0008281709060CF008952F5FF7CF39
:10086000FC01DB018481813039F514968C91149759
:10087000813011F581812DE0E081F0E0289FE00DCD
:10088000F11D1124E458FA4F94919A32A9F011966F
:100890008C91EE91F0E0289FE00DF11D1124E458B9
:1008A000FA4FE49181E09E1301C080E091E0EA32CA
:1008B00009F090E0892B089581E0089520910F04BC
:1008C0002D79A1F4903578F49032C0F441E083336F
:1008D000910539F0C0F441E08E31910588F4049718
:1008E00028F0842F0895392F365511F040E0F9CFC4
:1008F0009C01205F364527303105C0F390E0E6CFFC
:100900008C97A1F7EECFC69741E0039750F3EECF57
:100910008091850220918402281301C008950196D8
:100920008770FACF909113048095892380931304E4
:10093000282F277081F4891771F09091F00492FFAD
:100940000AC0869586958695CDDE10921304109286
:10095000140410921504089590910F04982B90930D
:100960000F0408958095982F80910F048923809318
:100970000F0408958095982F809112048923809305
:100980001204089580910D04811531F010920D0428
:1009900010920B0410920C040895803E9105D1F141
:1009A000C8F48133910509F481C048F48932910576
:1009B00009F471C08A32910509F47FC00895893322
:1009C0009105E1F082389105C9F08533910509F46C
:1009D0005DC00895843E9105D1F148F4823E9105B1
:1009E00031F1833E910541F181EE90E00895863E1C
:1009F0009105C1F1873E9105F1F108952091EF0431
:100A0000237009F064C02091F00423FF14C089E230
:100A100090E008952091EF0420FD45C03091F0044E
:100A200030FF09C024FD24C083EE90E0089520919A
:100A3000EF0422FDF7CF08952091EF0422FD44C07A
:100A40003091F00430FD43C024FFF5CF11C0209158
:100A5000F00421FFF0CF8091EF0484FD09C087EE00
:100A600090E008952091EF0423FFE5CF24FFF7CF16
:100A700080E090E008952091EF0423FD2BC0309199
:100A8000F00431FFE1CF84EE90E008952091EF046F
:100A900025FFD1CFBCCF2091EF0425FD1EC02091B2
:100AA000F00423FFC8CF89E390E008952091EF047C
:100AB00026FFC1CF8AE290E008952091EF0426FF3F
:100AC000BACF81E390E0089582EE90E0089580EE41
:100AD00090E0089586EE90E0089585E390E0089513
:100AE0009091EF0492FF10C041E0282F2471243030
:100AF00009F040E031E0282F2871283009F030E07B
:100B0000431711F02CE0822793FF10C041E0282FFB
:100B10002471243109F040E031E0282F2871283178
:100B200009F030E0431711F02CE082273091F004F7
:100B300030FF10C051E0282F2171213009F050E022
:100B400041E0282F2871283009F040E0541711F0B7
:100B500029E0822731FF10C041E0282F2171213187
:100B600009F040E031E0282F2871283109F030E009
:100B7000431711F029E0822794FD877E08950F9393
:100B80001F93CF93DF9309DFEC01D23508F03DC00E
:100B9000D03508F0AEC0C83ED105F0F4C03ED10556
:100BA00060F4C53AD10578F4C430D10530F481E061
:100BB000219709F080E0C82FD0E0CE01DF91CF91DE
:100BC0001F910F910895CE018D5C9109D0654397D7
:100BD000A0F3C0E0D0E0F1CFD03478F4D03208F008
:100BE0009BC0CE0191509F31A0F78D2F79DF082F48
:100BF0008C2F90E0D2DE902B4FC08C2F90E0CDDE7A
:100C0000DF70C82FD92BD06AD8CFC03882E5D8077B
:100C1000B8F5C03682E5D80708F051C0C03482E587
:100C2000D807C8F4C03282E5D80708F042C08C2F3C
:100C30008695869520E2829FC0011124C37021E031
:100C400030E002C0220F331FCA95E2F7E901C82B3A
:100C5000D92BDD68B2CF8C2F86958695877020E2E0
:100C6000829FC0011124C37021E030E002C0220F36
:100C7000331FCA95E2F7E901C82BD92BDC689DCF59
:100C8000C03C82E5D80750F48C2F8F71C03AD24512
:100C900058F5982F84EF906AEC018FCFCE01805CDD
:100CA0009245809708F095CFDC2FDF71C0EFD06AB6
:100CB00084CF8C2F8F71D82FC1EFD06A7ECF8C2F2D
:100CC00086958695877020E2829FC0011124C370AB
:100CD00021E030E002C0220F331FCA95E2F7E9019C
:100CE000C82BD92BDA6869CFFBDEC0E0D82FD062E1
:100CF00064CF8C2F8F71F4DE93E0CC0FDD1F9A95BB
:100D0000E1F7DF70282F84FF04C090E1899F9001F4
:100D10001124C22FD06951CF8D2F8F71E1DE082FA2
:100D20008C2F90E03ADE902BEC01E1CF80E008952B
:100D3000F894E82FE295EF70F0E041A18F7021E088
:100D400001C0220F8A95EAF7922F9095942391A3E0
:100D500092A1822F892B82A378940895E091FF01BC
:100D6000F0910002309739F00284F385E02D30973E
:100D700011F060E20995089581152CE7920741F47E
:100D80002091E3013091E401232B11F480E090E005
:100D90000895E9E7F3E080E090E068EB79E24BED5D
:100DA00059E22EE43AE266837783408751872287AF
:100DB000338786879787019670968830910599F7D3
:100DC0000895903218F4911106C008959C01305294
:100DD000303350F00895392F94FF02C03295307FA0
:100DE000FB012081232B208390E00895462B22FFD6
:100DF0000FC0982F92959F708F70892B962F929588
:100E00009F706F70692B942F92959F704F70492B34
:100E1000982F9623961308C040955FEF90E04823E3
:100E2000592381E0452B09F080E008958091C704A3
:100E30009091C80480931001909311010895CF936D
:100E4000DF938FEF9FEF4430510508F458C0209195
:100E5000EF0421FB882780F990E0880F991F22FB7F
:100E6000AA27A0F9B0E0AA0FBB1FAA0FBB1F8A2BAD
:100E70009B2BC22FC1708C2B23FBEE27E0F9F0E0F7
:100E800053E0EE0FFF1F5A95E1F78E2B9F2B24FBAB
:100E9000442740F930E1439FA0011124842B952B76
:100EA00025FB442740F930E2439FA0011124842B05
:100EB000952B26FB442740F930E4439FA0011124E1
:100EC000842B952B27FB222720F940E8249F9001B3
:100ED0001124822B932B2091F004422F4170942BEC
:100EE00026952170322F330F932BA92FAA0FAA0B0F
:100EF000FB0180839183A283A38380E090E0DF9154
:100F0000CF9108959C0143E0369527954A95E1F7E6
:100F10002E7130E0F901EE5AFE4F408151818F7001
:100F200090E0E82F81E002C0880F991FEA95E2F770
:100F3000611541F0482B592B2E5A3E4FF901408341
:100F4000518308958095909548235923F5CF1092A9
:100F5000560410925704E6E1F4E08581811102C045
:100F600014821682379684E0EE34F807B1F70895BC
:100F7000DC016091590480915804962F891301C0B7
:100F80000895292F30E0F901EE0FFF1FE25BFB4FC0
:100F9000408151814A175B0799F487E08A9FA0013D
:100FA0008B9F500D11244A5E5B4F81E0FA018483D0
:100FB0009613E6CF2F5F3F4F237020935904089577
:100FC0002395922F9370DACFFC018481862351F40C
:100FD00092819115B9F06923808583FF05C081E076
:100FE00061110FC080E00895292F22952F709F7006
:100FF000292B962F92959F706F70962B81E0291365
:10100000F1CF089581E008950F931F93CF9301E0EE
:10101000082E01C0000F0A94EAF7C0910A049C2F21
:101020009023A9F49091130496959695969589131B
:1010300006C010921304109214041092150449DB98
:10104000C027C0930A04CF911F910F9108954ADBE6
:10105000F7CF9091DB0289029001112437FF03C082
:101060008093DB0208952F3731051CF4980F90937D
:10107000DB020895A0E0B0E0FC01EA0FFB1FE49161
:10108000E41308C031E02A2F2327820F911DFC01B1
:10109000849108951196A61778F380E0089541157C
:1010A000510511F0FA0109950895E091FF01F091C1
:1010B0000002309739F00190F081E02D309711F067
:1010C0000995089580E008959C01FC01329680E026
:1010D0009FEF4081461759F031969F3F19F4411117
:1010E00001C0982F8F5F8630A1F79F3F09F40895C4
:1010F000290F311D97FD3A95F90162830895E4E3C4
:10110000F1E09191891302C0DF011E9291E0EA3370
:10111000F907B9F708958091010108952FB7F89460
:1011200080914D0190914E01A0914F01B0915001DD
:101130002FBF08958091C9049091CA04892B81F032
:10114000EDDF20910B0430910C04821B930B9C016A
:1011500081E04091C9045091CA042417350708F46E
:1011600080E008959091F00492FF0EC0982F990F9F
:10117000990F990F962B90931304ABDACFDF8093DE
:101180001404909315040895A4CA90910D04292F76
:10119000282359F08095892380930D0490E08111D4
:1011A000BDDF80930B0490930C040895CF93C82F58
:1011B0008091F00482FF0BC080910D048C1739F0F0
:1011C000ADDF80930B0490930C04C0930D04CF917A
:1011D00008952FB7F89460914D0170914E01809160
:1011E0004F01909150012FBF0895CF92DF92EF925F
:1011F000FF92CF93DF93EC01C0907303D090740300
:10120000E0907503F0907603E4DFDC01CB018C19EC
:101210009D09AE09BF09843F9140A105B10508F1C0
:10122000D8DF6B017C0182E390E0C092DA01D092BA
:10123000DB01E092DC01F092DD018093D601909316
:10124000D7011092D8011092D901CE01C093710339
:1012500090937203DF91CF91FF90EF90DF90CF904A
:10126000089584EF91E0E1CF87E797E78093000846
:101270009093010888E19AE00FB6F894A8958093BE
:1012800060000FBE90936000FFCF08950895089509
:10129000FC0120914301309144012617370748F0A3
:1012A0006115710529F49091E8009E779093E8000C
:1012B0009B0190E02115310541F4911106C0809108
:1012C000E80082FF32C080E008958091E501811539
:1012D000C1F18530C1F18091E80083FD30C080917B
:1012E000E80082FDECCF8091E80080FFE3CF8091A1
:1012F000F3004091F200582F2115310519F04830C4
:10130000510558F091E04830510509F090E04091C6
:10131000E8004E774093E800CDCF81918093F100B3
:10132000215031094F5F5F4FE7CF8091E501811573
:1013300041F0853041F08091E80083FFC0CF81E02B
:10134000089582E0089583E00895982F9093E9002E
:10135000891771F07091EC002091ED005091F00030
:1013600021FD09C09F5F973089F78093E9000895B8
:10137000762F242F50E03091EB003E7F3093EB002E
:101380003091ED003D7F3093ED003091EB00316006
:101390003093EB007093EC002093ED005093F0003D
:1013A0002091EE0027FDDECF089580913D0187FF5B
:1013B00013C08091E80082FF06C08091E8008B771F
:1013C0008093E80008958091E5018111F2CF08959E
:1013D0008091E5018115D9F38091E80080FFF8CF75
:1013E0008091E8008E77ECCF2091E4003091E50009
:1013F00095E6A9012091EC00822F817020FF06C0A4
:101400008091E80080FF06C080E008952091E80008
:1014100022FD1AC08091E501811589F0853089F09F
:101420008091EB0085FD0FC02091E4003091E50034
:1014300042175307F9F29150E1F684E0089582E0F3
:10144000089583E0089581E00895CF93DF93C8ED78
:10145000D0E088818F7E8883E7EDF0E08081816035
:10146000808384E082BF81E080933C0188818E7F0D
:101470008883E2EE10821092DA00A1EEB0E01C92B6
:1014800088818F77888388818068888388818F7D31
:10149000888319BC1092E50110923B011092CC0197
:1014A00010923A01A0EE8C918B7F8C9388818160A1
:1014B000888342E060E080E048DFA1EEB0E08C91FC
:1014C0008E7F8C93E2EEF0E080818160808380816A
:1014D00088608083E0EE80818E7F80838881806158
:1014E0008883DF91CF910895E8EDF0E080818E7FD1
:1014F00080831092E2001092DA001092E100A0EED8
:10150000B0E08C9181608C9380818F77808319BC4F
:10151000A7ED8C918E7F8C9380818F7E808310923B
:101520003C010895009709F408950197EFE9FFE061
:101530003197F1F700C00000F5CF0F931F93CF93C1
:10154000DF93EB018A019091E501943059F5809386
:10155000E9008FEF9091E80095FD06C095ED9A9512
:10156000F1F700008150B1F78091E80085FF1AC0C3
:101570003BDF811112C08091E80085FD06C080919B
:10158000E8008E778093E800F3CF88818093F100A4
:101590000150104011F02196EECF8091E8008E7737
:1015A0008093E800DF91CF911F910F9108956032F1
:1015B00029F440E250E0BC0182E0BFCF0895CF9310
:1015C000DF93EC0148E050E0BC0181E0B6DF88E049
:1015D000FE01A5E4B1E001900D928A95E1F7DF915B
:1015E000CF9108959091F00492FB222720F92817BB
:1015F00071F080FB92F99093F0046091EF04709188
:10160000F00484E090E00E94CC3382E08BC908951E
:101610001F93CF93DF93122F282F262B2430D0F443
:101620004D30C0F4C42FD0E0CC0FDD1F2AE1629F03
:10163000C00DD11D112498E6899FC00DD11D112424
:10164000632FCE0189960E94B233612FCE018A9614
:101650000E94B233DF91CF911F910895CF93C09133
:101660000F0480911204C82B80910D048115D1F0D4
:101670008091C9049091CA04892B19F05BDD811116
:1016800081D980910D04C82B20E084E391E0FC0116
:101690003081019631112F5F31E08A339307B9F71A
:1016A000211170D98091F50280958C239091F402DC
:1016B000892B8093320148E050E061E072E082E3E0
:1016C00091E00E946933892BB9F088E0E2E3F1E010
:1016D000A1E0B2E001900D928A95E1F7E091FF015F
:1016E000F0910002309741F00280F381E02D3097B5
:1016F00019F082E391E00995CF910895CF93C82F17
:10170000811591F08450813A88F4E4E3F1E080811E
:10171000C817C9F0319681E0EA33F807C1F76C2F9A
:1017200082E391E0D1DC9ADFCF9108958C2F805E27
:101730008830D0F781E0C1FD84E0C0FD880FC2FD94
:1017400082950AD9F0CF8C2FDADC88DFE8CFCF93EF
:10175000DF93EC01805E9109089720F06FE17CE057
:10176000209711F465E17CE0CE010E9421038C2FCB
:10177000C5DFDF91CF910895611529F02091120402
:101780002260209312049C013052303308F490E020
:10179000DECF811531F0982F9450913A18F4AFDCD8
:1017A0005DCF0895982F905E9830D8F7982F81E0FC
:1017B00091FD84E090FD880F92FD8295D3D8F0CF03
:1017C000CF93DF93EC01E5DFCE01805E91090897AE
:1017D00020F068E27CE0209711F46AE17CE0CE0121
:1017E0000E942103DF91CF9108951F93CF93DF9340
:1017F000182FC091E704D091E804893321F0C091FB
:10180000E504D091E604812F79DF209731F4812F10
:10181000C0DFDF91CF911F9108958FE99FE001977D
:10182000F1F700C000002197F0CF811511F094D896
:1018300015CF0895811511F095D810CF0895811511
:1018400031F090911204982B9093120407CF0895D1
:10185000811511F08FD802CF08958091F002811583
:1018600021F082E2F5DF1092F002089510920F0449
:10187000E4E3F1E086E011928A95E9F71092120410
:10188000EDCEF4DF8FEF94E32CE0815090402040C8
:10189000E1F700C0000088E19AE00FB6F894A8953F
:1018A000809360000FBE90936000FFCFCF93DF93D3
:1018B000EC0180911902883010F0D8DF80E0E82F29
:1018C000F0E0EE0FFF1FE75FFD4F9E01C083318305
:1018D0008F5F80931902DF91CF910895CF93DF93AB
:1018E0008FEF9FEF44305105B8F0FB01D081C181EB
:1018F000BDDFD093EF04C3708091F0048C7FC82BC0
:10190000C093F0046091EF047091F00484E090E0E3
:101910000E94CC3380E090E0DF91CF910895AAE25D
:10192000B0E0E5E9FCE00C9438338DE391E0FC0194
:1019300001962091F100208321E085349207B9F7C8
:1019400080913E01893009F457C0C8F4823009F40F
:10195000B2C0833009F482C0813081F18091E80007
:1019600083FFE6C080913D0190913E019A3008F0DE
:10197000DFC0E92FF0E0E751FC4C0C940D338A30C6
:1019800009F489C08B3051F780913D01813231F7E4
:101990008091410190914201892B01F78091E800EB
:1019A000877F8093E80001DD81E090913F019111F4
:1019B00001C080E08093020159DFD0CF80913D01CA
:1019C000813A61F68091E800877F8093E8008091FA
:1019D000410190914201892B59F060E080E090E054
:1019E00070E056DC8091E8008B778093E800B6CFFA
:1019F00068E085E491E0F4CF80913D01813209F007
:101A0000ADCF8091410190914201892B09F0A6CF81
:101A10008091E800877F8093E8008091E80082FF52
:101A200018C02091F3008091F200922F029731F4B8
:101A30008091F100813011F0863021F48091F10025
:101A4000809301018091E8008B778093E800ADDC02
:101A500085CF8091E5018111E0CF80CF80913D015C
:101A6000813A09F07BCF8091410190914201892B0D
:101A700009F074CF8091E800877F8093E80080911F
:101A8000E80080FFFCCF809102018093F1008091FB
:101A9000E8008E77DACF80913D01813209F05ECF88
:101AA0008091E800877F8093E8007FDC809140018F
:101AB0008093000153CF80913D01813A09F04ECFD0
:101AC0008091E800877F8093E8008091E80080FFA4
:101AD000FCCF80910001D9CF803889F0823841F560
:101AE000809141018F70873018F58093E9008091D3
:101AF000EB0085FB882780F91092E90006C08091F1
:101B0000CC01880F90913A01892B9091E800977F42
:101B10009093E8008093F1001092F1008091E8002A
:101B20008E7723C0811116C080913F01813009F169
:101B30008091E80083FF0AC08091E800877F80934E
:101B4000E8008091EB0080628093EB00AA96E3E0CE
:101B50000C945433823061F780913F01811579F004
:101B60001092E9008091E800877F8093E8001DDCF7
:101B7000DFCF933009F080E08093CC01F1CF8091EA
:101B800041018F70282F2150263090F68093E90074
:101B90002091EB0020FFE4CF933031F48091EB00F3
:101BA00080628093EB00DCCF9091EB00906190938A
:101BB000EB0021E001C0220F8A95EAF72093EA00AA
:101BC0001092EA008091EB008860EBCF8111B0CFDA
:101BD00080913F018F77182F8091E3008078812BCF
:101BE0008093E3008091E800877F8093E800DDDB4D
:101BF0008091E80080FFFCCF8091E30080688093B3
:101C0000E30083E0111101C082E08093E50190CFF1
:101C10008058823008F08CCF20913F0130914001F4
:101C20002C3D83E0380789F583E08A838AE2898343
:101C30004FB7F894DE01139620E03EE051E2E32F27
:101C4000F0E050935700849120FF03C082958F707D
:101C50003F5F8F708A30B8F0895C8D931D922F5F43
:101C6000243169F74FBF8091E800877F8093E800B7
:101C70006AE270E0CE0101960BDB8091E8008B7781
:101C80008093E80055CF805DE8CF832F90E08330CC
:101C9000910511F160F48130910509F475C082302D
:101CA000910509F045CF82E4E2E1F1E028C02091FE
:101CB0004101309142018132910509F45CC08232C8
:101CC000910509F035CF2130310508F465C009F0E0
:101CD0002FCFECEAF0E013C0822F90E0223009F41D
:101CE00043C08330910580F50097B9F5E0EBF1E052
:101CF000E4918E2FE0EBF1E0009709F419CF2091E9
:101D0000E800277F2093E8002091430130914401AF
:101D10008217930708F49C0140E02115310509F072
:101D20003FC041113DC08091E80082FDA6CF809167
:101D3000E501811509F4A1CF853009F49ECF80918A
:101D4000E80083FFF0CF99CF09F0F2CEE6E6F1E0AC
:101D5000E4918E2FE6E6F1E0CFCFE0EAF1E0E49106
:101D60008E2FE0EAF1E0C8CFE4E8F1E0E4918E2FB5
:101D7000E4E8F1E0C1CF2130310550F009F0D8CED0
:101D800089E0EDE3F1E0BBCF82E1E4E5F1E0B7CF3C
:101D900089E0E4E2F1E0B3CF84E4EEECF0E0AFCF31
:101DA0008091E501811509F468CF853009F465CF8C
:101DB0008091E80083FD61CF8091E80082FDB3CF80
:101DC0008091E80080FFA9CF4091F3008091F2005C
:101DD000942F2115310519F08830910550F041E01C
:101DE000089709F040E08091E8008E778093E80042
:101DF00094CF44914093F1003196215031090196DE
:101E0000E8CF803809F094CE8091E800877F8093F6
:101E1000E80080913B018093F10080CE811188CE53
:101E200080913F01182F823008F082CE8091E80027
:101E3000877F8093E80010933B01B7DA1115B9F062
:101E400084E08093E50142E061EC81E07EDA42E2E9
:101E500061EC82E07ADA42E260EC83E076DA80914B
:101E6000E501843051F482E08093030161CE8091DA
:101E7000E30087FDE5CF81E0E4CF81E0F5CF8091FD
:101E80001401877F809314018091F002811103C0B7
:101E900082E00E94BA048091140184FF06C08F7E04
:101EA0008093140182E00E94AC048091140185FFAC
:101EB00006C08F7D8093140180E20E94AC04CECBDB
:101EC000A0E0B0E0E6E6FFE00C943433EC018B01D7
:101ED000D42E8091140182FF5FC0E090FF03F09048
:101EE0000004EC16FD0619F0209709F055C080910A
:101EF00014018B7F80931401C1E081FD10C080919B
:101F0000FD039091FE039801281B390BC1E08091DD
:101F10001001909111012817390708F4C0E0809151
:101F20001401C0FB81F9809314016C2FC7010E943A
:101F3000820780910F0481FF08C0809114018061A5
:101F40008093140182E00E94B20480910F0485FF07
:101F500008C08091140180628093140180E20E9485
:101F6000B2046C2FC70108DCD11429F08091E2047F
:101F70008076803219F18091E5049091E604D2DAFE
:101F80008091FF03909100049C013052303308F49B
:101F900090E016DC74DF0EC0CE019052903398F4BE
:101FA0008C2F90E00DDC8091FF0390910004C81706
:101FB000D90781F30093FD031093FE03CDB7DEB77D
:101FC000E7E00C945033CE01EDCF1F93CF93DF9316
:101FD000182FA0916F03B0917003109709F445C0BA
:101FE00010927103109272031092F5021092F40293
:101FF0001696CD91DD9118979E0131503F3100F436
:10200000D1E0C11101C0D0E01996ED91FD911B976F
:10201000309731F01B966D917D9180E00995D82322
:10202000D11531F08C2F8450813A18F58C2F67D858
:102030001115A1F0E0916F03F0917003808584FD8C
:102040000DC080916E03811549F0808191819C01C2
:10205000215031092F333E4708F4C7D8FFDA1092D8
:102060006F031092700310926E03DF91CF911F9156
:102070000895F4DA8C2F8DDBDBCFCF93DF93EC0167
:102080004A855B856E857F850AD88B810E94BA045C
:102090008C810E94B204E2DA86E019928A95E9F70F
:1020A000DF91CF910895CF93DF93EC018D8181FD76
:1020B00013C082608D83809112049B81892B809351
:1020C00012048C810E94AC04C9DA488559856E855A
:1020D0007F85CE010E944F081092F9031092FA03F7
:1020E0008D8180FD02C0CE01C8DFDF91CF910895C0
:1020F000A8E0B0E0EEE7F0E10C943133FE01319658
:10210000DF0188E01D928A95E9F79FE1E92E91E0D1
:10211000F92E8F01BE2EA12EF70181917F018F3FF5
:1021200009F444C0F894E82FE295EF70F0E021A1A3
:102130008F7041E001C0440F8A95EAF7922F942BEB
:1021400091A392A1842F8095892382A3789400C0C3
:10215000E3E2F1E021E030E0C12CD12C41914F3F8E
:1021600079F0A42FA295AF70A05EB0E08C9190E0C2
:102170004F7002C0959587954A95E2F780FF3EC063
:1021800080E090E0C82AD92A220F331F81E0E03393
:10219000F80721F7F70182918F3F11F00E9498060E
:1021A00080EA8A95F1F7F801C082D1820E5F1F4F55
:1021B00083E2E81681E0F80609F0AECF48E050E08F
:1021C0006B2D7A2D81EF91E00E946933892BC1F04C
:1021D00088E0EB2DFA2DA1EFB1E001900D928A95E8
:1021E000E1F781E08093E8010E948E088093E60188
:1021F0009093E7012896EAE00C944D33C901C2CFD1
:102200008091E8018115B1F30091E6011091E70199
:102210000E948E08801B910B059760F348E050E008
:1022200061EF71E089EE91E00E946933892B49F0FA
:1022300088E0E1EFF1E0A9EEB1E001900D928A951E
:10224000E1F71092E801D6CF9B01BA01FC0132966A
:10225000E4914E2F50E06E17710550F00496FC018A
:1022600065917591C9010E94763380E090E00895F0
:102270008FEF9FEF0895EF92FF921F93CF93DF931D
:1022800000D000D0CDB7DEB77B01FC0133961491AE
:1022900019821A821B821C82452B61F48FEF9FEFFB
:1022A0000F900F900F900F90DF91CF911F91FF90A3
:1022B000EF90089544E050E0BE016F5F7F4FC4DFB0
:1022C000019661F381E090E002C0880F991F1A9592
:1022D000E2F7A92FAA0FAA0BBA2F49815A816B8165
:1022E0007C8184239523A623B72321E0892B8A2B85
:1022F0008B2B09F420E0F701208380E090E0D0CF21
:102300000F931F93CF93DF9307EC14E0C9ECD1E058
:10231000CE010E949633F80161918F01681719F080
:10232000CE010E94B2332196C13F81E0D80781F7E8
:10233000DF91CF911F910F910895FC013296E491A6
:102340002E2F30E04E17510558F00496FC01859170
:102350009591A9010E947633D3DF80E090E0089543
:102360008FEF9FEF0895AF92BF92DF92EF92FF92AF
:102370000F931F93CF93DF9300D000D0CDB7DEB77C
:102380007C015B01FC013396D49019821A821B8276
:102390001C82452B81F48FEF9FEF0F900F900F90D1
:1023A0000F90DF91CF911F910F91FF90EF90DF90F1
:1023B000BF90AF90089544E050E0CE010196BC017B
:1023C000C70142DF019639F381E090E00D2C02C095
:1023D000880F991F0A94E2F780959095A92FAA0F6C
:1023E000AA0BBA2F49815A816B817C818423952362
:1023F000A623B723F5012081022F017010E002C04F
:10240000000F111FDA94E2F7212F220F220B802BED
:10241000912BA22BB22B89839A83AB83BC8344E09C
:1024200050E0CE010196BC01C70187DFB6CF0F9304
:102430001F93CF93DF9307EC14E0C9ECD1E0CE01FA
:102440000E949633F80181938F012196C13F81E06C
:10245000D807A9F7C6EAD3E0FE01859195910097C8
:1024600011F0FC0109952C9684E0C237D807A1F73A
:10247000DF91CF911F910F9108951092E104109276
:10248000E2048FEA8093C7041092C80485E0809329
:10249000E30428E833E12093C9043093CA0422E31B
:1024A0002093DD041092DE0428EC2093DF041092C8
:1024B000E0041092E4042093EB041092EC041092D8
:1024C000E5041092E60420E52093E7041092E80466
:1024D0008093E9041092ED041092EE0411DFC6D946
:1024E0001092EF041092F00480E084608093F00476
:1024F00060E074E084E090E00E94CC3398CF0F93CA
:102500001F93CF93DF93982F962B9430F8F44D3090
:10251000E8F4C42FD0E0CC0FDD1F9AE1699FC00D15
:10252000D11D112498E6899FC00DD11D1124CE0123
:1025300089960E949633082FCE018A960E94963380
:10254000902FDF91CF911F910F91089580E090E03F
:10255000F8CF462F2091FB013091FC01232B89F409
:10256000703F39F4603F69F48091F9019091FA016C
:102570000895982F972B943020F46D3010F4672F26
:10258000BECF80E090E00895CF92DF92FF920F934C
:102590001F93CF93DF936C010091C6048091C50413
:1025A000082BC3E0D0E010E0C8010C2E02C09595C6
:1025B00087950A94E2F780FD0CC02197A8F7F12CCB
:1025C0008F2DDF91CF911F910F91FF90DF90CF90D2
:1025D0000895FC2EB6018C2FBCDF0E94BF05019729
:1025E00061F3EECF1F93CF93DF93EC01611579F088
:1025F000411569F0C9DF182F682FCE010E947D03B5
:10260000BE01812FA6DFDF91CF911F9108950E9417
:10261000B303182FF5CFFC01462F278130852115F4
:10262000310529F4658180819181DCDF9C01C9013C
:102630000895CF93DF93EC01A7DFBE018ADF0E94EC
:10264000BF05DF91CF910895FC018481811541F090
:1026500087819085009729F00E94BF050C943F0365
:10266000089580819181E5DFF9CF6F3E7105810585
:10267000910528F4CB018F5E9C4F0C94963380E03B
:10268000089585E290E00E949633813B69F486E2EA
:1026900090E00E9496338F3F39F487E290E00E94E9
:1026A000963391E08D3B09F090E0892F8170089579
:1026B000AAE0B0E0EEE5F3E10C942E33C090E30124
:1026C000D090E40181E08093E3011092E401812C39
:1026D000912C10E0540100E01AC021E030E01330EA
:1026E00021F0F701859195919C01472D602F812F55
:1026F0000E94080B739482E0E80EF11C872D8D3048
:1027000061F70F5F8DE0A80EB11C043041F0C501E8
:10271000880F991F8C599D4F7C01712CDECF1F5F54
:1027200084E3880E911C1430A9F6A7DE19821A8260
:102730001B821C821D821E821F82188688EC89875C
:102740001A8601EF11E07E018FEFE81AF80A4AE0DD
:1027500050E0B801C7010E94D033065F1F4F01341B
:1027600082E01807A1F7F7018AE011928A95E9F74C
:102770004AE050E0B801C7010E94D033065F1F4F06
:10278000013982E01807A1F7F70189E011928A95D3
:10279000E9F78FEF9FEF8D839E8387E08A874AE07A
:1027A00050E0B801C7010E94D033065F1F4F013EC1
:1027B00082E01807A1F7F70186E011928A95E9F700
:1027C00046E050E0B801C7010E94D0330A5F1F4FB6
:1027D000013183E01807A1F7C092E301D092E40130
:1027E0002A96EDE00C944A33AAE0B0E0EAEFF3E178
:1027F0000C943333E3E7F1E080E511928A95E9F731
:10280000E6E1F4E088E311928A95E9F783E7C82EC0
:1028100081E0D82E96E1E92E94E0F92E01E412E051
:10282000F701C082D1824AE050E0B801CE010196A2
:102830000E94863388E09E012F5F3F4FF901D60149
:1028400001900D928A95E1F789859A85F701828337
:1028500093838AE0C80ED11C87E0E80EF11C065F66
:102860001F4F013982E01807D9F62A96E8E00C9448
:102870004F33AAE0B0E0EFE3F4E10C94353306EF18
:1028800012E081E9E82E82E0F82E4AE050E0B7013C
:10289000CE0101960E948633F801389687E01192A6
:1028A0008A95E9F789819A81F801808391838F81E4
:1028B00082838D81838388858483898585838B81C9
:1028C0009C81868397838A8587FD04C022E731E057
:1028D0002587368780FF03C0F80191E0908781FF4C
:1028E00004C0F80190859260908782FF04C0F801CF
:1028F00090859460908783FF04C0F801908598606C
:10290000908784FF04C0F80190859061908785FFCF
:1029100004C0F8018085806280878AE0E80EF11C9F
:10292000015F1F4F81EEE81682E0F80609F0ADCF97
:102930002A96E6E00C945133A6E0B0E0E2EAF4E136
:102940000C94353300E912E081EEE82E82E0F82E97
:1029500046E050E0B701CE0101960E948633F801AF
:1029600088E011928A95E9F7B8016C5F7F4F898101
:102970009A810E94E106F80180839183B8016B5F20
:102980007F4F8B819C810E94E106F80182839383B3
:102990008D8186838E81878386E0E80EF11C085F37
:1029A0001F4F81E1E81683E0F80691F62696E6E0EF
:1029B0000C9451339B01883070F49AE0899FB001E8
:1029C00011246F507E4F4AE050E0C9010E948633C7
:1029D00080E090E008958FEF9FEF0895AAE0B0E0C7
:1029E000E4EFF4E10C943933392F375561F4BE012B
:1029F0006F5F7F4FDFDF892B31F489859A852A96B7
:102A0000E2E00C9455338091DF049091E004F7CF1D
:102A1000A0E1B0E0EEE0F5E10C942B33FE0131963D
:102A2000DF0180E11D928A95E9F70FE010E091E166
:102A3000A92E93E0B92E612C712C23014A189E2EE9
:102A40008F2E6201730181E1481651046104710403
:102A50001CF080E1C82ED12CA601B501892D982D3E
:102A60000E94A333AC0CBD1C0D2C000C00084C18AC
:102A70005D08600870080150104019F76096E0E1A9
:102A80000C9447336FEF85E290E00E94B2336FEF12
:102A900086E290E00E94B2336FEF87E290E00E94FE
:102AA000B23360E088E290E00E94B23301DEB0DF32
:102AB00061EB85E290E00E94B2336FEF86E290E036
:102AC0000E94B2336DEB87E290E00C94B233A0E049
:102AD000B0E0EDE6F5E10C943233EC0198819130F1
:102AE000E8F009F041C08981813029F48A81239678
:102AF0000E94F50BF3CF823029F48A8123960E943D
:102B00007E0BECCF833029F48A8123960E94C90B77
:102B1000E5CF843041F022968111E0CFCDB7DEB70A
:102B2000E9E00C944E338A81239620E030E09AE06D
:102B3000482F4053550B4A30510560F0211531059F
:102B400059F3EFE9FFE03197F1F700C000002150A1
:102B50003109F4CF929FB001939F700D11249A0117
:102B6000260F371F8991E4CF2196E92FF0E0EC5131
:102B7000FE4F8491B82E292F26952695269530E074
:102B8000F901EC52FE4FE4909770F12C092E02C02F
:102B9000F594E7940A94E2F7F901EC53FE4FC490E0
:102BA000D12C092E02C0D594C7940A94E2F72C5474
:102BB0003E4FF901049110E002C0159507959A95D2
:102BC000E2F7E0FE03C081EE0E947E0BC0FE03C070
:102BD00086EE0E947E0B8B2D0E947E0B8B2D0E9419
:102BE000C90BC0FE03C086EE0E94C90BE0FE03C005
:102BF00081EE0E94C90B00FF71CF8CE279CFACE06F
:102C0000B0E0E5E0F6E10C9429337C01FC0184811D
:102C1000811509F4A7C160E0C701FDDCF701268139
:102C2000203170F4409185023091840243132CC00E
:102C300030918002311521F030918102303120F144
:102C4000F701358131110CC0903508F07DC090320C
:102C500008F091C0883E910588F4803E9105A0F46B
:102C60008093790290937A02F70182819381809315
:102C70007702909378021092120106C09C013150A5
:102C80003F3170F78111ECCF61E0C701C4DC8C01EA
:102C9000F7018581811529F1E091F903F091FA039B
:102CA0003097F9F00E171F07E1F08E2F887F90E024
:102CB000892B09F062C0F0E0E295F295F07FFE27E3
:102CC000E07FFE27E758FC4F858184608583008381
:102CD0001183CF01E8D91092120461E0C7019BDC97
:102CE0008C018091E50281114FC0F701858181152A
:102CF00009F4EFC0103508F0D7C0103208F036C123
:102D0000011587E0180709F43FC0D0F5C801805EBF
:102D100091090897C8F18091120490910F04892BB2
:102D200090910D04892B99E0F701A1EDB2E001909B
:102D30000D929A95E1F70093D8021093D902109260
:102D4000DB028093D00220C0803E22E5920768F427
:102D5000803822E5920708F097CF9C012052324537
:102D60002032310508F07CCF8FCF9C0127573C479C
:102D700022303105F7CF2031F5CFE0E0F0E0A4CFED
:102D800001158FE0180739F6F70185818111D5C14A
:102D9000173508F4CCC2183510F00C9424216801C2
:102DA00089EAD80E66EE72E08C2D04DE892B39F5A7
:102DB000C60182959295907F9827807F9827FC0185
:102DC000E758FC4F2281213009F081C22091E602B0
:102DD0003091E702232B99F02091E8023091E9022B
:102DE000232B69F02091EA023091EB024091EC0232
:102DF0005091ED02242B352B232B09F472C28091C4
:102E0000F002811509F408C3C0900F04D0900D049E
:102E10000E948E0888579C4E8093F1029093F20294
:102E2000F7018581811509F4F7C28D2D8C298D79E3
:102E300009F019C3103508F0CBC2103408F01AC3DA
:102E4000063E110509F4E8C2C8019052903208F01C
:102E5000D4C28681803108F400C3C02ED12C809169
:102E6000140180FF11C38DEF0E94BA048DE2C816D1
:102E7000D104A1F008F01BC388E2C816D10408F001
:102E800005C38EE1C816D10408F004C384E0C81A53
:102E9000D1088AE1C816D10408F0E5C28091120475
:102EA000826080931204F6C2003E92E5190750F446
:102EB000003682E5180708F067CFC80192558034C4
:102EC000910528CF980127573C472530310508F058
:102ED00022CF09379CE7190709F04BC02091D8028F
:102EE0003091D902232B79F18115A1F081E00E9464
:102EF00029088091D0020E941F0C89E0E1EDF2E0E8
:102F0000A7E8B2E001900D928A95E1F78091DB028B
:102F10008093860286E0F701A7E8B2E001900D9267
:102F20008A95E1F7809186028093E50287E892E036
:102F300066DE1092E502F7018581811104C080915F
:102F4000D0020E94280C80911304877059F0F70179
:102F50008581811539F08091F00482FF03C082E001
:102F60000E9492042C96E2E10C94453386818031D4
:102F7000D1CE0A379CE7190709F006CF811509F46D
:102F8000B1C0C090D802D090D9021091D00219835C
:102F9000BE016F5F7F4FC6010E94E1062C0189814F
:102FA0008987F0E96F2EF2E07F2EA1E0AA2EB12CE6
:102FB0008FEF8F83F301078103FF4DC020803180A5
:102FC0008280938042145304A9F484818B87202F3C
:102FD0004681682F89850E94F606811559F08B85F8
:102FE0000E942A039F8198172CF4F3012581540134
:102FF000B22A8F8348145904C1F401FF16C0F301AB
:1030000085818B87202F4681682F89850E94F6064F
:10301000811559F08B850E942A039F8198172CF403
:10302000F30124815101B22A8F8300FF14C08F81E4
:103030008F3F89F481E0A816B10469F4202FF301D1
:10304000468160E089850E94F606811521F0F30132
:1030500085815401B82A88E0680E711C80ED92E0E9
:103060008615970509F0A6CF81E0A816B10481F571
:10307000012F02950F70012B0F7081E0103108F4C1
:1030800080E080FD006180E2D816E0F4D1104EC0EF
:103090009C2C802F8D704C2D811509F44AC06AE05C
:1030A00084EC95E00E943A08A82E811109C0492DB0
:1030B0006CE080EB95E00E943A08A82E811531F073
:1030C000B02E06C0C6019052903388F1A12CB12CCD
:1030D000ECEDF2E087E011928A95E9F7A092E30225
:1030E000B092E4028091E3029091E402892B09F40A
:1030F0002ACFF7018581811539F08FEF0E942908C9
:103100008091DB028093DA0286E0F701ACEDB2E059
:1031100001900D928A95E1F78091DA028093E502A1
:103120008CED92E06CDD1092E5020DCF0D29D12CD3
:10313000AFCF68E08CEB95E0B5CFC80197578038EA
:10314000910508F0D9C0003108F0FDCE6EEE70E0B8
:1031500080E090E08ADA8111F6CEA12CB12C4501F5
:10316000011138C08E010F5F1F4FF80184E01192EA
:103170008A95E9F7B401C50178DA8983811509F4E4
:10318000E2CE240135019FEF491A590A690A790AEA
:103190008130E9F4B201C30168DAD82E8A8381153F
:1031A00009F4D1CEB401C5016E5F7F4F8F4F9F4FA1
:1031B0002D2D2150233030F523E0820E911CA11CCF
:1031C000B11C2401350151DA8B838115C1F0C8018E
:1031D0007EDC15C08FEE88169104A104B10409F4B9
:1031E000B2CEB401C50141DA9FEF891A990AA90A42
:1031F000B90A8111EFCF0150B3CF2B013C0142013D
:103200005301B3CF2D2D2550233078F524013501FE
:1032100023E0420E511C611C711C27DA8B8381153F
:1032200071F384E0880E911CA11CB11CB201C30192
:103230001CDA8C83811103C024013501E0CF8B811E
:103240009C8181302FEF920710F0982F80E02D2D78
:10325000263029F0273031F00E94A929EDCF0E94B5
:103260006B29EACF0E948A29E7CF2D2D243029F639
:10327000FCD9D82E811509F466CEB401C5016D5F65
:103280007F4F8F4F9F4FF1D9811509F45CCE94E0A9
:10329000890E911CA11CB11C24013501282F21503D
:1032A000330B4FEF429FC001439F900D11242D2DF2
:1032B0002150330B820F931F009709F4A0CF019781
:1032C000EFE9FFE03197F1F700C00000F5CF2230C1
:1032D00009F095CD2091EA023091EB02232B09F4FD
:1032E0008ECDFC01E258FC4F20812E7F2083875831
:1032F0009C4F0E94531083CD03378CE71807B9F415
:103300008091F002811519F00E942D0C1CCE1092B4
:103310000F040E94C2040E948E0888579C4E80931E
:10332000F1029093F20281E08093F0020CCE023A17
:1033300082E51807A1F150F4C8019052903210F1C3
:10334000013E110561F1053E110503C0023B82E516
:10335000180709F054CD25EE30E0277081E001C058
:10336000880F2A95EAF7482F2091F3023091F00256
:103370003115E9F0F70135813115A1F0282B2093A3
:10338000F302E1CDF7018681803108F038CD812F3D
:103390008F7190E08230910511F04297DACF21EEE3
:1033A00030E0DBCF809582238093F302CCCD322FA7
:1033B000342309F424CD982F909592239093F3020F
:1033C0000E94B204F7018581811509F4BCCD17CDA7
:1033D000003E82E51807C0F4003C82E51807E0F4DF
:1033E000003A82E5180758F4003682E51807A0F481
:1033F000C80192558034910578F0680130CD043BC6
:1034000082E5180749F0F9CF09378CE7180708F566
:1034100007378CE7180788F3F7013580311409F472
:1034200053C00E358CE7180709F44AC00F358CE7F6
:10343000180749F00D358CE7180709F045C0809151
:1034400013018115E9F11092130180E00E94E50F4C
:103450007ACD0B378CE71807D5CF812F8F71843148
:10346000D9F2863161F00E942D0C8091F3020E9406
:10347000AC04D2CF8681803108F0EFCCCDCF56EEB0
:10348000C52E52E1D52EEBCC8FEFEECC8AE2C816DA
:10349000D10449F78091F302811531F08091120433
:1034A00092E08927809312040E942E0BB5CF8CE402
:1034B000C816D10479F38DE2C81682E0D806E9CFA8
:1034C00081E0809313013FCD80911301811147C0AA
:1034D000912F975509F0D8C0A02E88EFA822B12CC3
:1034E000A114B10409F02FCDE02FF0E0E295F295A0
:1034F000F07FFE27E07FFE27CF0187589C4F6C01AD
:10350000D70115968C91E258FC4F908180FB90F981
:103510009083811509F4F3C10E948E088093FB0308
:103520009093FC03F60182818F5F82838091120465
:1035300090910F04892B838380910D0484834681AD
:10354000578166857785C6010E944F08F6018581FF
:1035500081FF5801A092F903B092FA0395C0380197
:1035600080EE681A710850900E0480910F04582A5A
:1035700080910D04582A88E06816710408F057C03D
:103580009801277081E001C0880F2A95EAF731146D
:1035900009F44AC0582AF701808191810E94B3033F
:1035A00021E030E002C0220F331F8A95E2F72B871B
:1035B0003C8780916F03909170038F8398878091EF
:1035C00077039091780389879A8746EFC42E42E06B
:1035D000D42EA12CB12C511004C0F601828181118E
:1035E00018C0F601838190E02B858223892B89F016
:1035F0008085982F977009F487E098E06916710428
:1036000008F0A6C0311409F49FC08695817081111D
:10361000A4C08FEFA81AB80A8FE0C80ED11C88E0AA
:10362000A816B104C1F61CC080955822B4CF311041
:1036300078C080917703909178030817190781F477
:103640001092770310927803109273031092740310
:103650001092750310927603109271031092720308
:1036600080916F0390917003009709F431CF28E0A7
:103670006216710408F02DC1652D0E94E4078111C6
:1036800003C081E00E94E50F8091E20480FFA4C1A5
:103690000E948E086C01F7018581811509F4C6C16D
:1036A0008091140182FF06C040E0B60180E090E006
:1036B0000E94600F04318CE7180709F4B3C105318B
:1036C0008CE7180709F437C103318CE7180709F4B0
:1036D00076C1C8019052903308F037C11092FF03B1
:1036E0001092000490910A048091C604282F20951E
:1036F0003FEF50E0292335232115310519F0982398
:1037000090930A040B379CE7190709F044C2F701AC
:103710009581911509F417CC0E942D030E9404088D
:1037200012CC00937703109378030E94E90860930A
:1037300073037093740380937503909376031092D0
:1037400071031092720327CF82FB882780F95FCF25
:10375000311409F45ECF80FF5CCFF6018080918048
:103760000815190519F4311409F453CF8F81988580
:103770008C159D0509F44DCFF6010584F685E02DE5
:10378000309721F08081811509F443CF652DC60162
:103790000E94E407811509F43CCF81E00815190562
:1037A00009F080E08321482E8114910441F08111B9
:1037B00006C089859A858816990609F02ACF80E087
:1037C0000E94E50FC0926F03D092700381E0809356
:1037D0006E038FE08A9DF0018B9DF00D1124EA505D
:1037E000FD4F85818093F50241100EC08114910434
:1037F00059F0808191819C0124503109213A310591
:1038000008F048C00E947F088FE08A9DF0018B9DE0
:10381000F00D1124EA50FD4FC680D780C6019150AB
:103820009F3110F480EED82299249394C601019719
:103830008F339E4708F0912C8FE08A9DD0018B9D9D
:10384000B00D1124AA50BD4F1996ED91FD911B9713
:10385000309731F01B966D917D9181E0099598220A
:103860009114A9F08FE08A9DF0018B9DF00D112439
:10387000EA50FD4F868197810E9405038093F402F0
:1038800088E06816710448F4C6010E94F5080E9499
:103890002E0B0DC00E94C90BB7CFC6010497813A09
:1038A000910558F46C2D82E391E00E946408411464
:1038B00009F40ECE0E942E0B46CB0E942E0B8FE3F6
:1038C0009CE90197F1F700C000008C2D0E947E0B4F
:1038D000EECFFC01208131810217130741F4311032
:1038E00009C010926E0380E00E94E50FF1CD311403
:1038F00009F4EECDFC01808585FDEACDF4CFF6011B
:103900004485558566857785C6010E944F08F60176
:10391000858181FFB9CEC6010E943D108091F903D7
:103920009091FA030817190709F0AECE1092F90327
:103930001092FA03A9CE90911401892F8E7F90FFE7
:103940008160809314010E943F0F8091140180FFD9
:1039500043C00832110508F07EC00E31110508F091
:103960008CC0C80104974A9778F58091E20484FDE1
:103970002BC0F7018581811509F4EEC080910D04FB
:1039800090910F04892B8D7F09F47CC01092FF0366
:10399000109200048091E20481FD74C060E0C801CF
:1039A0000E94820760E0C8010E94BC0B80910D0458
:1039B0008D7F0E94D60882E00E949204C4CA809142
:1039C0001401816080931401F7018581811521F034
:1039D0001092FF031092000407378CE7180709F4D0
:1039E000C1C008378CE7180709F4CDC0C801805E54
:1039F0009245809708F076CEF7018581811172CECD
:103A00000F7181E090E002C0880F991F0A95E2F7DC
:103A10008C01682F83E090E00E94B233802F0E94D7
:103A2000630391CA809114018E7F8BCF8091140122
:103A30008F7E013E110531F0053E110531F4809174
:103A400014018F7D8093140180CFC8019052903370
:103A500008F07BCF47CE0933110560F40D32110514
:103A600020F40B32110509F0AFCF8091E20482FD02
:103A7000ABCF7FCF04361105F6CF8091E20483FDF2
:103A8000A3CF77CF89E0F701A1E0B4E001900D92D8
:103A90008A95E1F710920304109204048091FF03C9
:103AA0009091000408171907C9F52091E20425FF39
:103AB00035C03091140131FF02C026FF2FC0209184
:103AC000FD033091FE035601A21AB30A0E94EE14C0
:103AD000A816B90618F580910F0481FF08C08091DF
:103AE000140180618093140182E00E94B2048091ED
:103AF0000F0485FF08C08091140180628093140137
:103B000080E20E94B2046091140166956170809118
:103B1000FF03909100040E94BC0B15CA80910D0414
:103B200090910F04982B91FBBB24B0F88D7F0E94DD
:103B3000D6080093FF0310930004C092FD03D092B7
:103B4000FE038B2D880F8460982F80911401897F4C
:103B5000982B909314012FCF40E0B601C8010E942A
:103B6000600FF1C9F7018581811549F081E00E945C
:103B7000690343E062E081E00E94E603E4C981E07A
:103B80000E947203F6CFF7018581811511F082E062
:103B9000EECF82E0F5CF003482E5180708F0C5C00B
:103BA000003282E5180708F0C6C0F70165811035BC
:103BB00008F09EC0103408F0D2C0F701858181154D
:103BC000B1F00A358CE7180709F407C108F0DEC028
:103BD00001308CE7180709F4FEC003308CE71807A2
:103BE00009F4F3C001158CE7180709F4E1C0F701E7
:103BF00087819085009709F4F4C00E94BF05082FC3
:103C0000D92E86E0F701DE01119601900D928A957A
:103C1000E1F7F701B580C680C2949FE0C922809188
:103C20001304877001F1AB2CB114F1F08D2D807F5E
:103C3000803461F0802F805E8830A8F08D2D807EEA
:103C4000803221F4023078F0C11469F08091F004E0
:103C500082FF09C082E00E94920480911304877061
:103C6000AA24A3948111A12C9D2C92948FE09822D8
:103C7000892D883009F4B3C108F0CAC0823008F435
:103C8000D9C0825F8F70823008F40AC1892D8850B4
:103C9000990B049718F40E945508A12C802F9D2D94
:103CA0000E943F03811541F0B11409F4A3C2C1146D
:103CB00009F497C21092F304A114A9F0809113049F
:103CC00080FD11C0F70115828695869586950E9424
:103CD0006903C7010E94FF1580911304869586959C
:103CE00086950E94720360E0C7010E940B133AC9D7
:103CF000C8019055923008F060CFC80125E0969534
:103D000087952A95E1F78F7020910A0441E0082EEB
:103D100001C0440F0A94EAF72423232B09F44DCF62
:103D20006111FCCC10920F04C5CDC801805C924596
:103D3000809708F042CF802F8F7120910A0441E0D4
:103D4000082E01C0440F0A94EAF72423232B09F418
:103D500034CFF7019581911509F4F5C8DFCC868140
:103D6000803108F02ACF611128CF212F2F7081E0F8
:103D700090E002C0880F991F2A95E2F720910A046B
:103D800082239323892B09F418CFDDC80B358CE7E8
:103D9000180729F10C358CE7180709F028CF809116
:103DA000F004002482FF0394802D0E94F20A1FCFAA
:103DB0000E94360C8FEF94E32CE08150904020401D
:103DC000E1F700C000000E9434096FEF7FEF80E050
:103DD00090E00E94CC330E94410C81E0E6CF80E06D
:103DE000E4CF8581C080D180811569F0C6010E9431
:103DF000C412182F682FC6010E947D03B601812FBF
:103E00000E94A912FACEC6010E94B303182FF6CF62
:103E1000893009F455C18A5F8F70823008F036CF3F
:103E2000023F09F05DC18D2D8F71B11056C10E9406
:103E300069032CCF1D2D1F708D2D803110F0129530
:103E4000107FB114B9F0111559F0802F805E8830C1
:103E500010F0011109C0812F0E94AC040E942E0BAA
:103E6000802F0E947E0B12CF80911204812B8093B1
:103E70001204F4CF802F0E94C90B111509F406CF4C
:103E8000802F805E883010F0011104C0812F0E94C5
:103E9000B20403C0812F0E94BA040E942E0BF6CEFA
:103EA0001D2D1F708D2D807F803211F01295107F97
:103EB000013040F009F472C0B11409F47EC0C1149D
:103EC000D9F0CECF8091F00482FD12C0B11449F038
:103ED000111529F0812F0E94AC040E942E0B80E066
:103EE000C0CF80E00E94C90B111509F4CFCECECF10
:103EF000B11491F1C11004C0812F0E94150CC6CEDF
:103F00008C2D813089F480900D04812F8821181721
:103F100009F4BCCE0E948E0880930B0490930C048D
:103F2000812A80920D04B2CE8091E304823008F49D
:103F3000ADCEC812ABCE812F0E94150C812F0E94EE
:103F4000C50880910E04912F9823191709F49ECE6D
:103F5000812B80930E049ACEC11011C0812F0E9434
:103F60001A0C812F0E94C50880910E04912F98236E
:103F700009F48CCE1095182310930E0487CE8091EF
:103F8000E304823008F482CE8C2D813009F07ECE9D
:103F900080910F04812309F479CEE0CF8091E90468
:103FA000B11421F08C1508F471CEA6CFC81608F014
:103FB0006DCE812F0E941A0C69CEC114D1F380916D
:103FC000E7049091E804093321F08091E504909191
:103FD000E6040E94920A802F0E94C90B57CE8D2DB5
:103FE0008370A1F5B11052CE802F8295869587708F
:103FF000880F880F402F4F70082E01C0440F0A947D
:10400000EAF7202F207104FF06C02FE001C0220F25
:104010008A95EAF720959D2D969596959370923006
:1040200081F0822F842B933031F08091C504913040
:1040300029F0242B82230E94630328CE842B822B19
:10404000FACF242B8091C5048227F5CFB11461F1FA
:10405000D0FE1CCE802F829586958770880F880FA2
:10406000402F4F70082E01C0440F0A94EAF7202F0A
:10407000207104FF06C02FE001C0220F8A95EAF7E5
:1040800020959D2D9695969593709230A1F0822F54
:10409000842B933031F08091C604913049F0242B69
:1040A00082230E946603F2CD823008F4EFCDD2CF96
:1040B000842B822BF6CF242B8091C6048227F1CF4C
:1040C0001D2D1F70B11429F0812F0E946903802FCC
:1040D00014CF802F0E941A0C812F0E947203D6CD1C
:1040E00060F4003FB9F0013F81F0B11409F474C0ED
:1040F000C110B6CE8D2D8F719ACE033F09F1043FCA
:10410000A1F78091F00482FD27C08D2D8F71B1142D
:1041100021F38DCE8091E904B11471F0C81608F036
:10412000B5CD2D2D2F7181E001C0880F2A95EAF7BA
:104130009091C6048927B5CF8C1508F4A7CDF1CF8F
:1041400080E0B11409F4ADCF81E09D2D9F7101C0D5
:10415000880F9A95EAF7A5CF8091E304823048F161
:10416000B114C9F0909113049770943059F41092DF
:10417000130410921404109215048D2D8F710E9457
:10418000720389CD63E0C81608F085CD8D2D8F713F
:104190000E94B20880CDC81640F01092130410920D
:1041A00014041092150464E0F1CF81E00E9492049F
:1041B00072CDB11431F063E08D2D8F710E94B20881
:1041C00065CD81E00E9492048C2D823008F45ECD92
:1041D00082E00E9492045ACDC110F1CE8D2D8F71D4
:1041E0007CCF809111048093100480910F04809300
:1041F000110462CD40E060E089819A810E94F21250
:1042000010910F04C11429F01092F30410931104BB
:1042100053CD2091F1043091F20482179307B1F746
:104220008091E40482FFF0CF8091F304811561F363
:10423000809110040E94150C802F0E94F50B809134
:1042400010040E941A0CE0CF03378CE71807BDC892
:10425000EF92FF920F931F93CF93DF938091810290
:10426000803108F047C080918002811509F442C076
:1042700080918502909184029817E1F17C0199E088
:10428000899FE0011124FE01E65EFD4F84818115C6
:10429000B1F1918180917C02981331C0908180911D
:1042A0007B0298132CC08581811129C00281138162
:1042B00080917D0290917E02081B190B60E08BE7D4
:1042C00092E00E940B130E94EE1408171907B8F42D
:1042D000809181028F70806180938102C05EDD4F8A
:1042E00088818F70806188838BE792E00E94FF1540
:1042F0000E948804CDB7DEB7E6E00C945133C701C5
:1043000083958770B7CFEF92FF920F931F93CF9350
:10431000DF93F82EE92EC091850280918402C817A0
:1043200091F189E0C89FE00111248E01065E1D4FC6
:10433000F8018581811589F0C8010E942413811537
:1043400061F0FE01E05EFD4F80818F7080618083AF
:10435000F801808191810E94560CC8010E94FF15CE
:1043600080918502909186020196877080938502E4
:10437000C65EDD4F89818E11CECF88818F11CBCF64
:104380008D81811541F2CDB7DEB7E6E00C94513353
:10439000FF920F931F93CF93DF93EC018091120153
:1043A000811539F0F12C8F2DCDB7DEB7E5E00C94F7
:1043B00052330A811B81061B170B043F81E018074B
:1043C00088F760E0CE010E940B139C01305230331D
:1043D00048F70E945E04811529F38091790290913B
:1043E0007A020E945E04F82E8115E1F28091ED04BC
:1043F0009091EE04853F21E0920710F084EF91E068
:104400000817190778F68E818F7080618E838881F6
:1044100099810E94560C0E942304CE010E94FF1530
:10442000C2CF2F923F925F926F927F928F929F9214
:10443000AF92BF92CF92DF92EF92FF920F931F93B2
:10444000CF93DF93CDB7DEB72F970FB6F894DEBFCB
:104450000FBECDBF8C0186E0F801DE011A960190F7
:104460000D928A95E1F7F80170806180E280F38017
:104470008480958030911902E0E09114A9F12BE736
:10448000C22E22E0D22E80917F02811157C081146A
:10449000D1F0911409F472C2C8010E94241381154D
:1044A00009F46CC26091770270917802C80170DFE4
:1044B000811109C089E0F801ABE7B2E001900D92EB
:1044C0008A95E1F7C5DEFF24F39499C0880F991F00
:1044D000875F9D4FDC0111962C911197261103C027
:1044E0008C91781649F0EF5F8E2F9E2F990F990BC4
:1044F000831791055CF3C3CFEF3F09F4C0CFD80118
:1045000016968C918F7080618C93E317A0F43150D4
:1045100030931902E31778F4F0E0EE0FFF1FE75F26
:10452000FD4FA32FB0E0AA0FBB1FA75FBD4F8D911A
:104530009D91808391830E942304A1CF60E08BE74B
:1045400092E00E940B131C015090800280917D022A
:1045500090917E025701A81AB90A60E08BE792E0B9
:10456000511409F462C20E940B130E94EE14A816A3
:10457000B90608F007C2811409F4A5CF90917C0216
:10458000F8018181D09081022D2D203108F0CFC11A
:1045900098136AC090917B028081981365C0209126
:1045A000820230918302878190852817390709F0AC
:1045B0005BC0911059C08D2D8F70806180938102F6
:1045C0008BE792E00E94FF1580918102F8018683BB
:1045D000C0907D02F0907E0200918502809184025D
:1045E000081751F089E0089F80011124065E1D4FD5
:1045F000F801858181111CC00E948804F12C8F2D47
:104600002F960FB6F894DEBF0FBECDBFDF91CF91CE
:104610001F910F91FF90EF90DF90CF90BF90AF90E0
:104620009F908F907F906F905F903F902F90089514
:10463000D280E380C8010E94241381110EC0C801FA
:104640000E94FF15809185029091860201968770E5
:1046500080938502CD2CFE2CBFCF6C2D7F2DC80101
:1046600097DE8111EFCFC8CFC1019052903308F08F
:104670007BC09110F8C040E0662D872D0E94040495
:10468000811147C040E0662D872D0E940404F82E5A
:10469000811509F419C18091E40480FFAFCF8BE745
:1046A00092E00E94FF1560E08BE792E00E940B13FE
:1046B0008C0170908502C72C88E0D82E9BE7892E4C
:1046C00092E0992E80918402C81689F0560129E063
:1046D000C29EC0011124865E9D4F7C0160E00E9455
:1046E0000B13582E692EF701858181118EC08D2DF7
:1046F000883008F4B5C08A859B8505DE0E942304B6
:104700000E948804EBE7F2E089E011928A95E9F7CC
:1047100075CF60E0C8010E940B138091E40483FF11
:10472000B1CFB8018BE792E00E9430048111AACF8B
:10473000809181028F7080618093810280917B02E1
:1047400090917C020E94560C8BE792E00E94FF152C
:10475000EBE7F2E089E011928A95E9F78A859B857B
:10476000D2DD0E94230448CF911409F48BCF8091AD
:1047700081028160809381028091E40481FF3ECFB9
:104780008BE792E00E94FF150091850280918402E0
:10479000081709F4C5C029E0029FC0011124865EF4
:1047A0009D4F7C010E942413811509F4B9C089E052
:1047B000F701ABE7B2E001900D928A95E1F7C801ED
:1047C00001968770082F809385020E94880480914B
:1047D0008402081709F410CF89E0089F8001112492
:1047E000065E1D4FC8010E942413811105CFC80128
:1047F0000E94FF1520918502309186022F5F3F4F66
:104800002770022F20938502E2CF1052103308F058
:104810006ECF8091E40483FD0AC0DC2C95012395C2
:10482000822F8770C82E052D162D47014BCFB7015B
:10483000C4010E943004811589F3EFCF29E0729EF4
:10484000C0011124865E9D4F0E94FF1520918502B4
:10485000309186022F5F3F4F2770722E2093850282
:10486000D710ECCF48CF8091810281608093810284
:1048700060E0C8010E940B138091E40483FF7CCFA9
:10488000B8018BE792E00E943004811175CF8091CE
:1048900081028E7FF82E80938102C8010E9424132A
:1048A0008111ACCE8F2D8F708061809381028091B9
:1048B0007B0290917C020E94560C0E9423048BE79D
:1048C00092E00E94FF151ECF8A859B850E941913D6
:1048D000292F22952F70903450F49F70223080F051
:1048E000911599F0F8019681903178F488CE2A5F7D
:1048F0002F70223078F0C8010E94FF15F52C7FCE72
:10490000911519F0811509F47ACE805E883008F48B
:1049100076CEF1CF803F08F472CE815F8330F7CF3F
:10492000EBE7F2E089E011928A95E9F750CF98130E
:104930001DC090917B028081981318C02091820243
:1049400030918302878190852817390779F4911077
:104950000DC0D682C8010E94FF1589E0F801ABE7BF
:10496000B2E001900D928A95E1F7ADCDC8010E94A9
:104970002413811519F08D2D91103AC0C8010E94A1
:10498000FF15A1CDB09081028B2D803130F48BE7E3
:1049900092E00E94FF15F601B7CE811409F493CD81
:1049A00090917C02F801818198131AC090917B024A
:1049B0008081981315C020918202309183028781F3
:1049C00090852817390761F491100AC0B682C80192
:1049D0000E94FF15F60189E011928A95E9F773CDDF
:1049E000C8010E942413811549F2911439F28B2DCC
:1049F000803208F45FCD80917B0290917C028983A4
:104A00009A83EB82FC8280917F028D831E8280914B
:104A100081028F8380918202909183028887998797
:104A2000CE0101960E94FF1545CD0E940B130E94F6
:104A3000EE14A816B90608F0AECF811409F443CDE0
:104A4000911409F49BCF90917C02F8018181981315
:104A500036C090917B028081981331C020918202F0
:104A600030918302878190852817390741F580911D
:104A70007D0290917E02E81AF90A60E08BE792E0ED
:104A80000E940B138091EB049091EC04E816F90658
:104A900008F063CF9091810290FD5FCF903108F4D0
:104AA0005CCF892FF8019683907F903F09F452CF15
:104AB000982F907F905F8F70892B86834BCFC80192
:104AC0000E942413811561F0609177027091780241
:104AD000C8015EDC811509F4EDCCEBE7F2E07BCF99
:104AE0008091810281608093810248CFA2E1B0E091
:104AF000ECE7F5E20C9437330A871B872C873D8758
:104B00004E875F87688B798B8A8BCE010A9689DC0A
:104B100081112EC0209184023091850289E0AE017E
:104B2000465F5F4FFA0149505109DA0101900D9239
:104B30008A95E1F78E858115D9F0822F90E08395D3
:104B4000877090E0AC0134171506D1F199E0929F7F
:104B5000D0011124A65EBD4F9E012F5F3F4FF9018A
:104B600001900D929A95E1F7409384020E94880487
:104B70008091850290918402891749F029E0829FF3
:104B8000C0011124865E9D4F4CDC811126C08E85AC
:104B9000811112C08091120181110EC08C859D85FA
:104BA0002091770230917802821B930B8F3F9F43B5
:104BB00018F081E0809312016296E4E00C94533384
:104BC0000E94360C1092840210928502EBE7F2E00C
:104BD00089E011928A95E9F7CBCF80918502909177
:104BE00086020196877080938502C2CFEF92FF9272
:104BF0000F931F93CF93DF938091C204E0915101F3
:104C0000CDE0811139C0CDB7DEB7E6E00C94513369
:104C1000DE2FDF5FD0935101EE2EF12CCE9FF001FD
:104C20001124E65AFB4F8481811529F187819085F3
:104C3000892B21F481859285019651F4008111819F
:104C400022813381448155816681778180854EDF61
:104C5000CE9DF001CF9DF00D1124E65AFB4F14823A
:104C60008091F002811521F08091140180FD0DC02A
:104C70008FEF0E94BA04ED2F8091C204E81740F232
:104C80001092C20410925101BECF8DEFF2CFA0E07E
:104C9000B0E0EDE4F6E20C942B33C091590497E0B8
:104CA000992E01E010E0809158048C1308C09EDF1B
:104CB0000E94A707CDB7DEB7E0E10C944733D0E000
:104CC000FE01EE0FFF1FE25BFB4F80819181989EFA
:104CD000D001999EB00D1124AA5EBB4F2D01FD019C
:104CE000248121115BC07090C204EAE5F4E060E029
:104CF00070E0812C671508F04FC0A384B484D20102
:104D0000CD90DD902FEF3FEF612C462D50E07601E6
:104D1000E60CF11CE60CF11CD701ED90FD90E114BE
:104D2000F10439F0AE14BF0409F0A90163949A01AB
:104D3000ECCF2F3F3207B1F1D80101C0AA0F2A955D
:104D4000EAF78A2A9801062C02C0220F331F0A9420
:104D5000E2F7A901415051098416150611F52DE01D
:104D6000269FF001279FF00D1124E65AFB4F989ED5
:104D7000D001999EB00D1124AA5EBB4F12962D91C1
:104D80003D912783308724E024831082118281871C
:104D9000928721E011962C930E94B807C395C370A7
:104DA00082CF14826F5F7F4F3D96A4CF1092C304D1
:104DB0001092C404109215018091580480935904F4
:104DC0000E94A70713CF2F923F925F926F927F921C
:104DD0008F929F92AF92BF92CF92DF92EF92FF920B
:104DE0000F931F93CF93DF93CDB7DEB76C970FB6BA
:104DF000F894DEBF0FBECDBF4B8B5C8B6D8B7E8B73
:104E00008F8B192F988F811509F475C040E0692F99
:104E10008B899C890E94F212111549F01092F304BB
:104E20008093F1049093F204109212040AC020912E
:104E3000F1043091F2042817390719F481E08093C6
:104E4000F304188A198A1A8A86E0FE017396DE0135
:104E50001A9601900D928A95E1F78091F00482FFF5
:104E600021C08091C9049091CA04892BD9F00E9475
:104E70008E082091140430911504821B930B20910D
:104E8000C9043091CA048217930738F08091130443
:104E900082FD03C082E00E9492040E949A08811160
:104EA0000E94C2048E858115D9F061E0CE010A9678
:104EB0000E940B1361E0CE010A960E940B1361E081
:104EC000CE010A960E940B135C0180E5A8168CE7C0
:104ED000B806A9F48F85811549F181E08093150109
:104EE0000A851B852C853D854E855F856889798976
:104EF0008A89FCDDCDC0911509F4A3CF95CF81E55A
:104F0000A8168CE7B80629F48F85811579F04EDF55
:104F1000E7CF82E5A8168CE7B80641F48F858115A6
:104F200029F0809115018111F2CFD7CF26E1E22E31
:104F300024E0F22E712C812C912C6F84F70160817A
:104F40007181DD24DA94CD2C80E0282F30E0FB0144
:104F5000E80FF11DE80FF11D408151814115510508
:104F600039F0A416B50609F096018F5F6901EDCFFF
:104F70009FEFC916DC0409F476C1F7014481509013
:104F800015014111512CF70135802681611409F476
:104F900015C1511409F412C10091DD041091DE0411
:104FA000311012C041E001C0440FCA94EAF7242B2B
:104FB000268320915604309157042017310720F49E
:104FC000009356041093570421E030E002C0220FF2
:104FD000331F8A95E2F7C9010197F7012681281747
:104FE000190609F0CFC0C090C304D090C404C11406
:104FF000D10409F465C00E948E088C199D09081718
:10500000190708F05DC081E0F7018483782A8FEFEB
:10501000881A980A87E0E80EF11C88E08816910447
:1050200009F08BCF611409F420C1711409F41DC17A
:105030000E948E088093C3049093C4048091C2049C
:10504000883030F5982F9F5F9093C20499E0FE015D
:105050003A969E012F5F3F4FD90101900D929A958C
:10506000E1F72DE0829FC0011124865A9B4F29E071
:10507000AE014F5F5F4FFA01DC0101900D922A955E
:10508000E1F72FEF3FEFFC0121873287A386B4863B
:105090006C960FB6F894DEBF0FBECDBFDF91CF91F7
:1050A0001F910F91FF90EF90DF90CF90BF90AF9046
:1050B0009F908F907F906F905F903F902F9008957A
:1050C0003091590420915804432F80E090E057E03C
:1050D000A1E0321709F444C0232E312CF101EE0F68
:1050E000FF1FE25BFB4F00811181509FF001519F38
:1050F000F00D1124EA5EFB4F808191818B8F9C8F94
:10510000C12CB0E0D12CEB8DFC8DED0DF11DED0D22
:10511000F11D808191810097D9F0F7016081718143
:10512000698F7A8FB0E007C0E1E08617970709F032
:10513000E0E0CE2ABF5FE98DFA8DEB0FF11DEB0F9A
:10514000F11D608171816115710571F7D394DBCF19
:10515000C11489F1BD15C0F481E0F7018483C70152
:10516000409359048E159F0569F030E0F901EE0F68
:10517000FF1FE25BFB4F808291822F5F3F4F2370C6
:1051800020935804852D42CF509FC001519F900D10
:1051900011248A5E9B4FFC01A4838E159F05F9F2B2
:1051A000341304C0BA016395462F4370B10163956F
:1051B000362F33708ECF80E090E0F8CF31101FC0D3
:1051C00061E070E002C0660F771F8A95E2F7CB01BD
:1051D00001978217930769F0512C81E001C0880F75
:1051E000CA94EAF7C82EC094F70186818C21868381
:1051F000C9CF411591F3C4010E94B807EDCFA901B1
:105200000C2C02C0559547950A94E2F7C901019705
:1052100082239323892B21F540FF22C0F70182814D
:105220009381892BC9F0FE01319687E011928A950E
:10523000E9F70E948E089C018B839C8384E08D8318
:10524000F70192818381792F9887898709811A8153
:1052500044E05E816F814ADCF7011582532CBDCF9B
:105260004170542EBACF80E0D1CE909159048091F4
:105270005804981731F00BDD872D813009F408CFE1
:105280002FCEB4DC1092C3041092C4040E94A7076E
:10529000F3CFA6E0B0E0EFE4F9E20C9437330E94DC
:1052A0008E088C018091FD019091FE01801791077D
:1052B00071F019821A820E948E08BC0149815A81BC
:1052C00080E090E080DD0093FD011093FE012696C2
:1052D000E4E00C945333A6E0B0E0E1E7F9E20C948B
:1052E00039338093F9019093FA01903230F40E949F
:1052F000A70B2696E2E00C94553380EF89838A83CE
:105300000E948E088160BC0149815A8181E091E050
:105310005ADDEFCFA6E0B0E0E0E9F9E20C943933D2
:105320008093F9019093FA01903230F40E94E00BDF
:105330002696E2E00C94553380EF89838A830E949D
:105340008E088160BC0149815A8181E090E03BDD9B
:10535000EFCFCF93DF93EC01BEDF8091E504909116
:10536000E6040E94920ACE01D5DFDF91CF91089525
:105370000F931F93CF93DF938C01862F66EE72E01D
:105380000E94DA14892B91F4C091E602D091E702D1
:10539000209761F0F8018281833039F4CE01D9DFA2
:1053A000CE01D7DFCE01D5DF01C0E0F7DF91CF918D
:1053B0001F910F9108950F931F93CF93DF938C014B
:1053C000C62F66EE72E08C2F0E94DA14892B09F04A
:1053D00058C0EC2FF0E0D80112968C911297ED5343
:1053E000FE4F8130A9F415968C9182FD4FC080FF4D
:1053F0004DC082E080838091E8029091E90200979D
:10540000C1F48091E6029091E7020097D1F111C0BA
:105410008230A9F5D80115968C9182FD26C080FDB9
:105420000AC083E080838091EA029091EB020097AA
:10543000F1F051DF26C084E080838091EC029091EE
:10544000ED020097B1F78091E6029091E702009794
:1054500001F17FDF8091E8029091E902009749F71E
:105460008091E6029091E702E4CF85E0808380910D
:10547000E6029091E702009721F06BDFF1CF86E022
:105480008083DF91CF911F910F91089581E08083F8
:10549000B8CF8091E8029091E902B7CF0F931F93A4
:1054A000CF93DF938C01C62F66EE72E08C2F0E94A3
:1054B000DA14892BA1F48091E5049091E6040E940E
:1054C000920AD0E0CD53DE4F8881F8011282188213
:1054D0008330E9F048F4813059F0823081F0DF9177
:1054E000CF911F910F9108958430B1F08530B9F7B5
:1054F0008091E6029091E702009789F306C08091BF
:10550000E8029091E902009799F304DFE8CF8091D7
:10551000EA029091EB02F7CF8091EC029091ED02BC
:10552000009799F72091E6023091E7028091E80216
:105530009091E90221153105F9F2009731F7C9017F
:10554000E4CFCDB7DEB7AE970FB6F894DEBF0FBE8F
:10555000CDBF85B7806885BF85B7806885BF84B7B4
:10556000877F84BF0FB6F894A8958091600088610A
:1055700080936000109260000FBE80E890E00FB64C
:10558000F89480936100909361000FBE81E0809356
:10559000030186E996E080933001909331010E94E7
:1055A000C9060E94F4130E9439140E949C140E94A0
:1055B00017120E94740A0E94250A8091E2008460FA
:1055C0008093E20078948091E501811599F08091B3
:1055D000E9001091EC008F7010FB112717F9182BC0
:1055E0001092E9008091E80083FD0E948F0C1F70EB
:1055F0001093E90082E084BD93E095BD9AEF97BDDA
:1056000080936E000E944113811102C00E944215D6
:105610000FE111E0F80181918F018F3F11F00E949D
:10562000980681E003321807A9F703E211E0F801B8
:1056300081918F018F3F11F00E94980681E0003325
:105640001807A9F7E9EEF1E088E011928A95E9F7E9
:10565000E1EFF1E088E011928A95E9F780E090E0CF
:105660000E949E33833E9E4F21F40E94411381117C
:1056700029C063EE7EEF80E090E00E94CC3360E0D2
:1056800082E090E00E94B23381E08093C50461E043
:1056900083E090E00E94B23360E074E184E090E047
:1056A0000E94CC330E94421560E070E0AB018FE0B5
:1056B00090E00E94C43360E070E0AB0183E190E0D1
:1056C0000E94C43382E090E00E9496338093CD0123
:1056D00084E090E00E949E338093EF049093F00466
:1056E0000E9478108FEF96E721E081509040204093
:1056F000E1F700C000000E9478108091E90180FF6E
:1057000008C06FEF7FEF80E090E00E94CC330E94F2
:10571000340983E090E00E9496330E94630384E0A2
:1057200091E08093FF019093000201EF11E08091DE
:10573000E501853049F48091E501853009F45EC0CA
:105740000E94360C0E9455080E947810AEEC6A2E1A
:10575000A1E07A2EB9EEEB2EB1E0FB2EF701D301DA
:105760002D913D918081918141E0A63DB40709F4DE
:105770007BC032962817390799F3F9EE8F2EF1E0A6
:105780009F2E512CF401C190D1904F01F301219033
:1057900031903F012C143D0451F12C243D24412C27
:1057A000E1E0AE2EB12CC1018A219B21892BB1F001
:1057B00049825A820E948E088B839C8381E08D836C
:1057C00091E096012A213B21232B09F490E09E834E
:1057D00049815A816B817C818D81F5DA4394AA0CD1
:1057E000BB1C842D8D30F9F6F301D292C2925394F2
:1057F000852D843039F60E94E9083BC08091E5018F
:10580000843021F11092CB0188E190E020E40FB6C2
:10581000F894A895809360000FBE2093600083B732
:10582000817F846083BF83B7816083BF78948895CC
:1058300083B78E7F83BF0FB6F894A89580916000E0
:10584000886180936000109260000FBE0E94781003
:10585000E9EEF1E080819181892B09F01DC5329636
:105860000E171F07B9F767CF2817390709F085CF3B
:1058700010DDC0907103D0907203C114D104A1F166
:105880008090DA019090DB01A090DC01B090DD0106
:105890000E94E908DC01CB0188199909AA09BB0912
:1058A0004091D6015091D7016091D8017091D901F2
:1058B00084179507A607B707B8F0C6010E94A70B83
:1058C00010927103109272031092DA011092DB01B0
:1058D0001092DC011092DD011092D6011092D701D6
:1058E0001092D8011092D901A090F903B090FA0358
:1058F000A114B10429F18090FB039090FC030E9455
:105900008E08881999096C01C5010E94EE148C1546
:105910009D05B0F48091F903282F287F30E0232BD8
:1059200009F0ABC090E082959295907F9827807F98
:10593000982787589C4FFC01258122FF0E94531015
:1059400080911501811511F1C090C304D090C40459
:10595000C114D104D9F00E948E088C199D092091A0
:105960005604309157042817390780F49091590450
:1059700080915804981709F483C089D9109256046D
:10598000109257041092C3041092C4048091E20450
:1059900080FF1CC08091140182FF18C00E948E08F5
:1059A0002091FD033091FE03AC01421B530B20916B
:1059B0001001309111014217530740F041E0BC0142
:1059C0008091FF03909100040E94600F8091F0028B
:1059D000811569F00E948E082091F1023091F20247
:1059E000821B930B8F3F9F4710F40E942D0C0E9447
:1059F00055089091DE01891721F08093DE010E9405
:105A0000E9088091E501843009F091CE83E080932C
:105A1000E9008091E80082FF8ACE8091E80090E062
:105A200085FF09C00E94F40950E2A52EB12C6E0139
:105A30008115B1F191E08091E8008B778093E800C7
:105A4000911509F474CEC090FB01D090FC01E9815E
:105A5000C114D104B1F1EE3F09F054C08A81833002
:105A600020F08550833008F04DC0EA81EE3008F018
:105A700049C0F0E0ED50FC4CD0C580E090E05BCF39
:105A8000B5D81092C3041092C4040E94A7077ECF19
:105A90008091F100F601808381E0A81AB10851F2EB
:105AA0008FEFC81AD80A8091E80085FDF1CF809168
:105AB000E8008B778093E8000E94F409811599F340
:105AC000B9CFE43148F4E11549F0E150E33130F465
:105AD000F0E0EF5FFB4CA1C5EE3F39F28FEF08C459
